{
  "contractName": "RegisterList",
  "abi": [
    {
      "constant": true,
      "inputs": [
        {
          "name": "",
          "type": "address"
        }
      ],
      "name": "creatorOwnerMap",
      "outputs": [
        {
          "name": "",
          "type": "address"
        }
      ],
      "payable": false,
      "stateMutability": "view",
      "type": "function"
    },
    {
      "constant": true,
      "inputs": [
        {
          "name": "",
          "type": "uint256"
        }
      ],
      "name": "registerList",
      "outputs": [
        {
          "name": "",
          "type": "address"
        }
      ],
      "payable": false,
      "stateMutability": "view",
      "type": "function"
    },
    {
      "constant": false,
      "inputs": [
        {
          "name": "_name",
          "type": "string"
        },
        {
          "name": "_age",
          "type": "string"
        },
        {
          "name": "_password",
          "type": "string"
        },
        {
          "name": "_phone",
          "type": "string"
        }
      ],
      "name": "createRegist",
      "outputs": [],
      "payable": false,
      "stateMutability": "nonpayable",
      "type": "function"
    },
    {
      "constant": true,
      "inputs": [],
      "name": "getinformation",
      "outputs": [
        {
          "name": "",
          "type": "string"
        },
        {
          "name": "",
          "type": "string"
        }
      ],
      "payable": false,
      "stateMutability": "view",
      "type": "function"
    },
    {
      "constant": true,
      "inputs": [
        {
          "name": "unknowvalue",
          "type": "string"
        },
        {
          "name": "pwd",
          "type": "string"
        }
      ],
      "name": "verifyPwd",
      "outputs": [
        {
          "name": "",
          "type": "bool"
        }
      ],
      "payable": false,
      "stateMutability": "view",
      "type": "function"
    },
    {
      "constant": true,
      "inputs": [],
      "name": "getCurrAddr",
      "outputs": [
        {
          "name": "",
          "type": "address"
        }
      ],
      "payable": false,
      "stateMutability": "view",
      "type": "function"
    }
  ],
  "bytecode": "0x608060405234801561001057600080fd5b50612f57806100206000396000f3fe60806040526004361062000079576000357c01000000000000000000000000000000000000000000000000000000009004806301796809146200007e578063176b3e7814620001835780634e48c0a414620004205780639e31a3ee14620004b5578063f6c9662d1462000636578063ffaaa05e1462000690575b600080fd5b3480156200008b57600080fd5b50620000966200070f565b604051808060200180602001838103835285818151815260200191508051906020019080838360005b83811015620000dc578082015181840152602081019050620000bf565b50505050905090810190601f1680156200010a5780820380516001836020036101000a031916815260200191505b50838103825284818151815260200191508051906020019080838360005b838110156200014557808201518184015260208101905062000128565b50505050905090810190601f168015620001735780820380516001836020036101000a031916815260200191505b5094505050505060405180910390f35b3480156200019057600080fd5b506200041e60048036036080811015620001a957600080fd5b8101908080359060200190640100000000811115620001c757600080fd5b820183602082011115620001da57600080fd5b80359060200191846001830284011164010000000083111715620001fd57600080fd5b91908080601f016020809104026020016040519081016040528093929190818152602001838380828437600081840152601f19601f820116905080830192505050505050509192919290803590602001906401000000008111156200026157600080fd5b8201836020820111156200027457600080fd5b803590602001918460018302840111640100000000831117156200029757600080fd5b91908080601f016020809104026020016040519081016040528093929190818152602001838380828437600081840152601f19601f82011690508083019250505050505050919291929080359060200190640100000000811115620002fb57600080fd5b8201836020820111156200030e57600080fd5b803590602001918460018302840111640100000000831117156200033157600080fd5b91908080601f016020809104026020016040519081016040528093929190818152602001838380828437600081840152601f19601f820116905080830192505050505050509192919290803590602001906401000000008111156200039557600080fd5b820183602082011115620003a857600080fd5b80359060200191846001830284011164010000000083111715620003cb57600080fd5b91908080601f016020809104026020016040519081016040528093929190818152602001838380828437600081840152601f19601f82011690508083019250505050505050919291929050505062000950565b005b3480156200042d57600080fd5b5062000473600480360360208110156200044657600080fd5b81019080803573ffffffffffffffffffffffffffffffffffffffff16906020019092919050505062000ce4565b604051808273ffffffffffffffffffffffffffffffffffffffff1673ffffffffffffffffffffffffffffffffffffffff16815260200191505060405180910390f35b348015620004c257600080fd5b506200061c60048036036040811015620004db57600080fd5b8101908080359060200190640100000000811115620004f957600080fd5b8201836020820111156200050c57600080fd5b803590602001918460018302840111640100000000831117156200052f57600080fd5b91908080601f016020809104026020016040519081016040528093929190818152602001838380828437600081840152601f19601f820116905080830192505050505050509192919290803590602001906401000000008111156200059357600080fd5b820183602082011115620005a657600080fd5b80359060200191846001830284011164010000000083111715620005c957600080fd5b91908080601f016020809104026020016040519081016040528093929190818152602001838380828437600081840152601f19601f82011690508083019250505050505050919291929050505062000d17565b604051808215151515815260200191505060405180910390f35b3480156200064357600080fd5b506200064e62001277565b604051808273ffffffffffffffffffffffffffffffffffffffff1673ffffffffffffffffffffffffffffffffffffffff16815260200191505060405180910390f35b3480156200069d57600080fd5b50620006cd60048036036020811015620006b657600080fd5b8101908080359060200190929190505050620012de565b604051808273ffffffffffffffffffffffffffffffffffffffff1673ffffffffffffffffffffffffffffffffffffffff16815260200191505060405180910390f35b60608060001515620007206200131d565b151514151562000798576040517f08c379a000000000000000000000000000000000000000000000000000000000815260040180806020018281038252600f8152602001807fe8b4a6e58fb7e69caae6b3a8e5868c000000000000000000000000000000000081525060200191505060405180910390fd5b6000600160003373ffffffffffffffffffffffffffffffffffffffff1673ffffffffffffffffffffffffffffffffffffffff16815260200190815260200160002060009054906101000a900473ffffffffffffffffffffffffffffffffffffffff1690508073ffffffffffffffffffffffffffffffffffffffff1663facf83236040518163ffffffff167c010000000000000000000000000000000000000000000000000000000002815260040160006040518083038186803b1580156200085f57600080fd5b505afa15801562000874573d6000803e3d6000fd5b505050506040513d6000823e3d601f19601f8201168201806040525060408110156200089f57600080fd5b810190808051640100000000811115620008b857600080fd5b82810190506020810184811115620008cf57600080fd5b8151856001820283011164010000000082111715620008ed57600080fd5b505092919060200180516401000000008111156200090a57600080fd5b828101905060208101848111156200092157600080fd5b81518560018202830111640100000000821117156200093f57600080fd5b505092919050505092509250509091565b600115156200095e6200131d565b1515141515620009d6576040517f08c379a00000000000000000000000000000000000000000000000000000000081526004018080602001828103825260108152602001807f6163636f756e7420697320616c6976650000000000000000000000000000000081525060200191505060405180910390fd5b60003385858585620009e7620013b2565b808673ffffffffffffffffffffffffffffffffffffffff1673ffffffffffffffffffffffffffffffffffffffff16815260200180602001806020018060200180602001858103855289818151815260200191508051906020019080838360005b8381101562000a6457808201518184015260208101905062000a47565b50505050905090810190601f16801562000a925780820380516001836020036101000a031916815260200191505b50858103845288818151815260200191508051906020019080838360005b8381101562000acd57808201518184015260208101905062000ab0565b50505050905090810190601f16801562000afb5780820380516001836020036101000a031916815260200191505b50858103835287818151815260200191508051906020019080838360005b8381101562000b3657808201518184015260208101905062000b19565b50505050905090810190601f16801562000b645780820380516001836020036101000a031916815260200191505b50858103825286818151815260200191508051906020019080838360005b8381101562000b9f57808201518184015260208101905062000b82565b50505050905090810190601f16801562000bcd5780820380516001836020036101000a031916815260200191505b509950505050505050505050604051809103906000f08015801562000bf6573d6000803e3d6000fd5b50905060008190806001815401808255809150509060018203906000526020600020016000909192909190916101000a81548173ffffffffffffffffffffffffffffffffffffffff021916908373ffffffffffffffffffffffffffffffffffffffff1602179055505080600160003373ffffffffffffffffffffffffffffffffffffffff1673ffffffffffffffffffffffffffffffffffffffff16815260200190815260200160002060006101000a81548173ffffffffffffffffffffffffffffffffffffffff021916908373ffffffffffffffffffffffffffffffffffffffff1602179055505050505050565b60016020528060005260406000206000915054906101000a900473ffffffffffffffffffffffffffffffffffffffff1681565b60008033905062000d276200131d565b15151562000d9d576040517f08c379a00000000000000000000000000000000000000000000000000000000081526004018080602001828103825260128152602001807fe8b4a6e688b7e8bf98e69caae5889be5bbba000000000000000000000000000081525060200191505060405180910390fd5b6000600160008373ffffffffffffffffffffffffffffffffffffffff1673ffffffffffffffffffffffffffffffffffffffff16815260200190815260200160002060009054906101000a900473ffffffffffffffffffffffffffffffffffffffff16905060008190508073ffffffffffffffffffffffffffffffffffffffff16639fb77387866040518263ffffffff167c01000000000000000000000000000000000000000000000000000000000281526004018080602001828103825283818151815260200191508051906020019080838360005b8381101562000e9057808201518184015260208101905062000e73565b50505050905090810190601f16801562000ebe5780820380516001836020036101000a031916815260200191505b509250505060206040518083038186803b15801562000edc57600080fd5b505afa15801562000ef1573d6000803e3d6000fd5b505050506040513d602081101562000f0857600080fd5b810190808051906020019092919050505080156200103557508073ffffffffffffffffffffffffffffffffffffffff1663b5d24320876040518263ffffffff167c01000000000000000000000000000000000000000000000000000000000281526004018080602001828103825283818151815260200191508051906020019080838360005b8381101562000fab57808201518184015260208101905062000f8e565b50505050905090810190601f16801562000fd95780820380516001836020036101000a031916815260200191505b509250505060206040518083038186803b15801562000ff757600080fd5b505afa1580156200100c573d6000803e3d6000fd5b505050506040513d60208110156200102357600080fd5b81019080805190602001909291905050505b806200126c57508073ffffffffffffffffffffffffffffffffffffffff1663e0f3ee9e876040518263ffffffff167c01000000000000000000000000000000000000000000000000000000000281526004018080602001828103825283818151815260200191508051906020019080838360005b83811015620010c6578082015181840152602081019050620010a9565b50505050905090810190601f168015620010f45780820380516001836020036101000a031916815260200191505b509250505060206040518083038186803b1580156200111257600080fd5b505afa15801562001127573d6000803e3d6000fd5b505050506040513d60208110156200113e57600080fd5b810190808051906020019092919050505080156200126b57508073ffffffffffffffffffffffffffffffffffffffff16639fb77387866040518263ffffffff167c01000000000000000000000000000000000000000000000000000000000281526004018080602001828103825283818151815260200191508051906020019080838360005b83811015620011e1578082015181840152602081019050620011c4565b50505050905090810190601f1680156200120f5780820380516001836020036101000a031916815260200191505b509250505060206040518083038186803b1580156200122d57600080fd5b505afa15801562001242573d6000803e3d6000fd5b505050506040513d60208110156200125957600080fd5b81019080805190602001909291905050505b5b935050505092915050565b6000600160003373ffffffffffffffffffffffffffffffffffffffff1673ffffffffffffffffffffffffffffffffffffffff16815260200190815260200160002060009054906101000a900473ffffffffffffffffffffffffffffffffffffffff16905090565b600081815481101515620012ee57fe5b906000526020600020016000915054906101000a900473ffffffffffffffffffffffffffffffffffffffff1681565b60008073ffffffffffffffffffffffffffffffffffffffff16600160003373ffffffffffffffffffffffffffffffffffffffff1673ffffffffffffffffffffffffffffffffffffffff16815260200190815260200160002060009054906101000a900473ffffffffffffffffffffffffffffffffffffffff1673ffffffffffffffffffffffffffffffffffffffff1614905090565b604051611b6880620013c48339019056fe60806040523480156200001157600080fd5b5060405162001b6838038062001b68833981018060405260a08110156200003757600080fd5b810190808051906020019092919080516401000000008111156200005a57600080fd5b828101905060208101848111156200007157600080fd5b81518560018202830111640100000000821117156200008f57600080fd5b50509291906020018051640100000000811115620000ac57600080fd5b82810190506020810184811115620000c357600080fd5b8151856001820283011164010000000082111715620000e157600080fd5b50509291906020018051640100000000811115620000fe57600080fd5b828101905060208101848111156200011557600080fd5b81518560018202830111640100000000821117156200013357600080fd5b505092919060200180516401000000008111156200015057600080fd5b828101905060208101848111156200016757600080fd5b81518560018202830111640100000000821117156200018557600080fd5b5050929190505050846000806101000a81548173ffffffffffffffffffffffffffffffffffffffff021916908373ffffffffffffffffffffffffffffffffffffffff1602179055508360019080519060200190620001e59291906200026e565b508260029080519060200190620001fe9291906200026e565b508160039080519060200190620002179291906200026e565b508060049080519060200190620002309291906200026e565b50426006819055506107d0600560006101000a81548167ffffffffffffffff021916908367ffffffffffffffff16021790555050505050506200031d565b828054600181600116156101000203166002900490600052602060002090601f016020900481019282601f10620002b157805160ff1916838001178555620002e2565b82800160010185558215620002e2579182015b82811115620002e1578251825591602001919060010190620002c4565b5b509050620002f19190620002f5565b5090565b6200031a91905b8082111562000316576000816000905550600101620002fc565b5090565b90565b61183b806200032d6000396000f3fe6080604052600436106100bf576000357c010000000000000000000000000000000000000000000000000000000090048063035527f9146100c457806312065fe014610243578063171b0188146102825780631f9fbde1146102bd578063344610671461032657806383212f94146104805780639fb77387146105da578063b5d24320146106ba578063c448be651461079a578063e0f3ee9e146107c5578063e96e02ad146108a5578063facf8323146108d0578063ff2a0bc0146109cc575b600080fd5b3480156100d057600080fd5b50610241600480360360608110156100e757600080fd5b81019080803573ffffffffffffffffffffffffffffffffffffffff1690602001909291908035906020019064010000000081111561012457600080fd5b82018360208201111561013657600080fd5b8035906020019184600183028401116401000000008311171561015857600080fd5b91908080601f016020809104026020016040519081016040528093929190818152602001838380828437600081840152601f19601f820116905080830192505050505050509192919290803590602001906401000000008111156101bb57600080fd5b8201836020820111156101cd57600080fd5b803590602001918460018302840111640100000000831117156101ef57600080fd5b91908080601f016020809104026020016040519081016040528093929190818152602001838380828437600081840152601f19601f820116905080830192505050505050509192919290505050610bc2565b005b34801561024f57600080fd5b50610258610cba565b604051808267ffffffffffffffff1667ffffffffffffffff16815260200191505060405180910390f35b34801561028e57600080fd5b506102bb600480360360208110156102a557600080fd5b8101908080359060200190929190505050610cd8565b005b3480156102c957600080fd5b5061030c600480360360208110156102e057600080fd5b81019080803573ffffffffffffffffffffffffffffffffffffffff169060200190929190505050610d58565b604051808215151515815260200191505060405180910390f35b34801561033257600080fd5b5061035f6004803603602081101561034957600080fd5b8101908080359060200190929190505050610e03565b60405180806020018581526020018473ffffffffffffffffffffffffffffffffffffffff1673ffffffffffffffffffffffffffffffffffffffff16815260200180602001838103835287818151815260200191508051906020019080838360005b838110156103db5780820151818401526020810190506103c0565b50505050905090810190601f1680156104085780820380516001836020036101000a031916815260200191505b50838103825284818151815260200191508051906020019080838360005b83811015610441578082015181840152602081019050610426565b50505050905090810190601f16801561046e5780820380516001836020036101000a031916815260200191505b50965050505050505060405180910390f35b34801561048c57600080fd5b506104b9600480360360208110156104a357600080fd5b8101908080359060200190929190505050610f92565b60405180806020018581526020018473ffffffffffffffffffffffffffffffffffffffff1673ffffffffffffffffffffffffffffffffffffffff16815260200180602001838103835287818151815260200191508051906020019080838360005b8381101561053557808201518184015260208101905061051a565b50505050905090810190601f1680156105625780820380516001836020036101000a031916815260200191505b50838103825284818151815260200191508051906020019080838360005b8381101561059b578082015181840152602081019050610580565b50505050905090810190601f1680156105c85780820380516001836020036101000a031916815260200191505b50965050505050505060405180910390f35b3480156105e657600080fd5b506106a0600480360360208110156105fd57600080fd5b810190808035906020019064010000000081111561061a57600080fd5b82018360208201111561062c57600080fd5b8035906020019184600183028401116401000000008311171561064e57600080fd5b91908080601f016020809104026020016040519081016040528093929190818152602001838380828437600081840152601f19601f820116905080830192505050505050509192919290505050611182565b604051808215151515815260200191505060405180910390f35b3480156106c657600080fd5b50610780600480360360208110156106dd57600080fd5b81019080803590602001906401000000008111156106fa57600080fd5b82018360208201111561070c57600080fd5b8035906020019184600183028401116401000000008311171561072e57600080fd5b91908080601f016020809104026020016040519081016040528093929190818152602001838380828437600081840152601f19601f8201169050808301925050505050505091929192905050506112c2565b604051808215151515815260200191505060405180910390f35b3480156107a657600080fd5b506107af611402565b6040518082815260200191505060405180910390f35b3480156107d157600080fd5b5061088b600480360360208110156107e857600080fd5b810190808035906020019064010000000081111561080557600080fd5b82018360208201111561081757600080fd5b8035906020019184600183028401116401000000008311171561083957600080fd5b91908080601f016020809104026020016040519081016040528093929190818152602001838380828437600081840152601f19601f82011690508083019250505050505050919291929050505061140c565b604051808215151515815260200191505060405180910390f35b3480156108b157600080fd5b506108ba61154c565b6040518082815260200191505060405180910390f35b3480156108dc57600080fd5b506108e5611559565b604051808060200180602001838103835285818151815260200191508051906020019080838360005b8381101561092957808201518184015260208101905061090e565b50505050905090810190601f1680156109565780820380516001836020036101000a031916815260200191505b50838103825284818151815260200191508051906020019080838360005b8381101561098f578082015181840152602081019050610974565b50505050905090810190601f1680156109bc5780820380516001836020036101000a031916815260200191505b5094505050505060405180910390f35b3480156109d857600080fd5b50610bc0600480360360608110156109ef57600080fd5b8101908080359060200190640100000000811115610a0c57600080fd5b820183602082011115610a1e57600080fd5b80359060200191846001830284011164010000000083111715610a4057600080fd5b91908080601f016020809104026020016040519081016040528093929190818152602001838380828437600081840152601f19601f82011690508083019250505050505050919291929080359060200190640100000000811115610aa357600080fd5b820183602082011115610ab557600080fd5b80359060200191846001830284011164010000000083111715610ad757600080fd5b91908080601f016020809104026020016040519081016040528093929190818152602001838380828437600081840152601f19601f82011690508083019250505050505050919291929080359060200190640100000000811115610b3a57600080fd5b820183602082011115610b4c57600080fd5b80359060200191846001830284011164010000000083111715610b6e57600080fd5b91908080601f016020809104026020016040519081016040528093929190818152602001838380828437600081840152601f19601f8201169050808301925050505050505091929192905050506116a0565b005b60076080604051908101604052808481526020014281526020018573ffffffffffffffffffffffffffffffffffffffff16815260200183815250908060018154018082558091505090600182039060005260206000209060040201600090919290919091506000820151816000019080519060200190610c439291906116ea565b506020820151816001015560408201518160020160006101000a81548173ffffffffffffffffffffffffffffffffffffffff021916908373ffffffffffffffffffffffffffffffffffffffff1602179055506060820151816003019080519060200190610cb19291906116ea565b50505050505050565b6000600560009054906101000a900467ffffffffffffffff16905090565b600081600560009054906101000a900467ffffffffffffffff1667ffffffffffffffff160112151515610d0a57600080fd5b80600560009054906101000a900467ffffffffffffffff1667ffffffffffffffff1601600560006101000a81548167ffffffffffffffff021916908367ffffffffffffffff16021790555050565b600080600090505b600780549050811015610df857600781815481101515610d7c57fe5b906000526020600020906004020160020160009054906101000a900473ffffffffffffffffffffffffffffffffffffffff1673ffffffffffffffffffffffffffffffffffffffff168373ffffffffffffffffffffffffffffffffffffffff161415610deb576000915050610dfe565b8080600101915050610d60565b50600190505b919050565b600781815481101515610e1257fe5b9060005260206000209060040201600091509050806000018054600181600116156101000203166002900480601f016020809104026020016040519081016040528092919081815260200182805460018160011615610100020316600290048015610ebe5780601f10610e9357610100808354040283529160200191610ebe565b820191906000526020600020905b815481529060010190602001808311610ea157829003601f168201915b5050505050908060010154908060020160009054906101000a900473ffffffffffffffffffffffffffffffffffffffff1690806003018054600181600116156101000203166002900480601f016020809104026020016040519081016040528092919081815260200182805460018160011615610100020316600290048015610f885780601f10610f5d57610100808354040283529160200191610f88565b820191906000526020600020905b815481529060010190602001808311610f6b57829003601f168201915b5050505050905084565b60606000806060600785815481101515610fa857fe5b9060005260206000209060040201600001600786815481101515610fc857fe5b906000526020600020906004020160010154600787815481101515610fe957fe5b906000526020600020906004020160020160009054906101000a900473ffffffffffffffffffffffffffffffffffffffff1660078881548110151561102a57fe5b9060005260206000209060040201600301838054600181600116156101000203166002900480601f0160208091040260200160405190810160405280929190818152602001828054600181600116156101000203166002900480156110d05780601f106110a5576101008083540402835291602001916110d0565b820191906000526020600020905b8154815290600101906020018083116110b357829003601f168201915b50505050509350808054600181600116156101000203166002900480601f01602080910402602001604051908101604052809291908181526020018280546001816001161561010002031660029004801561116c5780601f106111415761010080835404028352916020019161116c565b820191906000526020600020905b81548152906001019060200180831161114f57829003601f168201915b5050505050905093509350935093509193509193565b6000600360405160200180806020018281038252838181546001816001161561010002031660029004815260200191508054600181600116156101000203166002900480156112125780601f106111e757610100808354040283529160200191611212565b820191906000526020600020905b8154815290600101906020018083116111f557829003601f168201915b50509250505060405160208183030381529060405280519060200120826040516020018080602001828103825283818151815260200191508051906020019080838360005b83811015611272578082015181840152602081019050611257565b50505050905090810190601f16801561129f5780820380516001836020036101000a031916815260200191505b509250505060405160208183030381529060405280519060200120149050919050565b6000600160405160200180806020018281038252838181546001816001161561010002031660029004815260200191508054600181600116156101000203166002900480156113525780601f1061132757610100808354040283529160200191611352565b820191906000526020600020905b81548152906001019060200180831161133557829003601f168201915b50509250505060405160208183030381529060405280519060200120826040516020018080602001828103825283818151815260200191508051906020019080838360005b838110156113b2578082015181840152602081019050611397565b50505050905090810190601f1680156113df5780820380516001836020036101000a031916815260200191505b509250505060405160208183030381529060405280519060200120149050919050565b6000600654905090565b6000816040516020018080602001828103825283818151815260200191508051906020019080838360005b83811015611452578082015181840152602081019050611437565b50505050905090810190601f16801561147f5780820380516001836020036101000a031916815260200191505b509250505060405160208183030381529060405280519060200120600460405160200180806020018281038252838181546001816001161561010002031660029004815260200191508054600181600116156101000203166002900480156115285780601f106114fd57610100808354040283529160200191611528565b820191906000526020600020905b81548152906001019060200180831161150b57829003601f168201915b50509250505060405160208183030381529060405280519060200120149050919050565b6000600780549050905090565b60608060016004818054600181600116156101000203166002900480601f0160208091040260200160405190810160405280929190818152602001828054600181600116156101000203166002900480156115f55780601f106115ca576101008083540402835291602001916115f5565b820191906000526020600020905b8154815290600101906020018083116115d857829003601f168201915b50505050509150808054600181600116156101000203166002900480601f0160208091040260200160405190810160405280929190818152602001828054600181600116156101000203166002900480156116915780601f1061166657610100808354040283529160200191611691565b820191906000526020600020905b81548152906001019060200180831161167457829003601f168201915b50505050509050915091509091565b82600190805190602001906116b692919061176a565b5081600290805190602001906116cd92919061176a565b5080600490805190602001906116e492919061176a565b50505050565b828054600181600116156101000203166002900490600052602060002090601f016020900481019282601f1061172b57805160ff1916838001178555611759565b82800160010185558215611759579182015b8281111561175857825182559160200191906001019061173d565b5b50905061176691906117ea565b5090565b828054600181600116156101000203166002900490600052602060002090601f016020900481019282601f106117ab57805160ff19168380011785556117d9565b828001600101855582156117d9579182015b828111156117d85782518255916020019190600101906117bd565b5b5090506117e691906117ea565b5090565b61180c91905b808211156118085760008160009055506001016117f0565b5090565b9056fea165627a7a72305820f9e6b9e79dc586c5c5b077e894edfa43ed4a2898abe7430a91cda5e38fd037e40029a165627a7a72305820aafe00171e3cbf1cf53106f576b4b4f9eb317fbbc4083f438d7bfa77539fe1bf0029",
  "source": "pragma solidity >=0.4.22 <0.6.2;\r\ncontract RegisterList\r\n{\r\n\r\n      address [] public registerList;\r\n      mapping(address=>address) public creatorOwnerMap;//\r\n      function createRegist(string memory _name,string memory _age,string memory  _password,string memory _phone)public\r\n      {\r\n          require(isRegist()==true,'account is alive');\r\n          address newRegiste=address(new  RegisterOwner(msg.sender,_name,_age,_password,_phone));\r\n          registerList.push(newRegiste);\r\n          creatorOwnerMap[msg.sender]=newRegiste;\r\n      }\r\n\r\n      function isRegist()  internal view returns(bool)\r\n      {\r\n          return creatorOwnerMap[msg.sender]==address(0x0);\r\n      }\r\n\r\n      function getinformation() view public returns(string memory,string memory)  //\r\n      {\r\n          require(isRegist()==false,'');\r\n          RegisterOwner registerowner=RegisterOwner(creatorOwnerMap[msg.sender]);\r\n          return registerowner.getOwnerInfo();\r\n      }\r\n\r\n      function verifyPwd(string memory unknowvalue,string memory pwd) public  view returns(bool) //\r\n      {\r\n          address create=msg.sender;\r\n          require(!isRegist(),'');\r\n          address contractAddr=creatorOwnerMap[create];//\r\n          RegisterOwner registerowner=RegisterOwner(contractAddr);\r\n          //\r\n          return(registerowner.rightPwd(pwd)&&registerowner.rightUseName(unknowvalue))||(registerowner.rightPhone(unknowvalue)&&registerowner.rightPwd(pwd));\r\n      }\r\n      //\r\n        function getCurrAddr()public view returns(address){\r\n                return creatorOwnerMap[msg.sender];\r\n            }\r\n}\r\n\r\ncontract RegisterOwner\r\n{\r\n    address register;\r\n    string name;\r\n    string age;\r\n    string password;\r\n    string  phone;\r\n    uint64 private nowbalance;\r\n    uint addtime;//\r\n\r\n    constructor(address _regisaddr,string memory _name,string memory _age,string memory  _password,string memory _phone) public\r\n    {\r\n     register=_regisaddr;\r\n     name=_name;\r\n     age=_age;\r\n     password=_password;\r\n     phone=_phone;\r\n     addtime=now;\r\n     nowbalance=2000;\r\n    }\r\n    //\r\n    struct Record{\r\n        string title;\r\n\r\n        uint256 currdate;\r\n        address currentaddr;//\r\n        string selectname;\r\n    }\r\n    Record [] public records; //\r\n     modifier onlyowner(address _register)\r\n    {\r\n        require(_register==register,'');\r\n        _;\r\n    }\r\n\r\n    //\r\n    function rightPwd(string memory _pwd) public view returns(bool)\r\n    {\r\n        return keccak256(abi.encode(_pwd))==keccak256(abi.encode(password));\r\n    }\r\n    //\r\n    function rightUseName(string memory _username)public view returns(bool)\r\n    {\r\n        return keccak256(abi.encode(_username))==keccak256(abi.encode(name));\r\n    }\r\n    //\r\n    function rightPhone(string memory _phone) public view returns(bool)\r\n    {\r\n        return keccak256(abi.encode(phone))==keccak256(abi.encode(_phone));\r\n    }\r\n\r\n    //\r\n    function getBalance() public view  returns(uint64)\r\n    {\r\n        return nowbalance;\r\n    }\r\n    //  \r\n    function updateBalance(int increment)public\r\n    {\r\n        require((int(nowbalance)+increment>=0));\r\n        nowbalance=uint64(int(nowbalance)+increment);\r\n    }\r\n    //  \r\n    function changeOwnerInfo(string memory _name,string memory _age,string memory _phone) public\r\n    {\r\n        name=_name;\r\n        age=_age;\r\n        phone=_phone;\r\n    }\r\n\r\n    //\r\n    function getOwnerInfo()public view returns(string memory,string memory )\r\n    {\r\n        return(name,phone);\r\n    }\r\n\r\n    //\r\n    function getrewords(uint256 i)public view  returns(string memory,uint256,address,string memory)\r\n    {\r\n       return(records[i].title,records[i].currdate,records[i].currentaddr,records[i].selectname);\r\n    }\r\n\r\n\r\n    //   \r\n    function  istovote(address _titleaddr) public view returns(bool)\r\n    {\r\n        for(uint i=0;i<records.length;i++)\r\n        {\r\n             if(_titleaddr==records[i].currentaddr)\r\n             {\r\n\r\n                     return false;\r\n\r\n             }\r\n        }\r\n         return true;\r\n    }\r\n    //\r\n    function Ballet(address _titleaddr,string memory _title,string memory selectname) public\r\n    {\r\n        //require(istovote(_titleaddr),'');\r\n\r\n        records.push(Record(_title,now,_titleaddr,selectname));//\r\n\r\n    }\r\n    //\r\n    function getReLen()public view returns(uint)\r\n    {\r\n        return records.length;\r\n    }\r\n //\r\n    function getaddtime()public view returns(uint)\r\n    {\r\n        return addtime;\r\n    }\r\n}\r\n",
  "sourcePath": "E:\\all_software\\webstorm\\code\\Ballet1\\contracts\\RegisterList.sol",
  "compiler": {
    "name": "solc",
    "version": "0.5.1+commit.c8a2cb62.Emscripten.clang"
  },
  "schemaVersion": "3.0.23",
  "updatedAt": "2020-05-12T05:47:10.375Z",
  "devdoc": {
    "methods": {}
  },
  "userdoc": {
    "methods": {}
  }
}