{
  "contractName": "TitleOwner",
  "abi": [
    {
      "constant": true,
      "inputs": [
        {
          "name": "",
          "type": "uint256"
        }
      ],
      "name": "GiveVote",
      "outputs": [
        {
          "name": "",
          "type": "address"
        }
      ],
      "payable": false,
      "stateMutability": "view",
      "type": "function"
    },
    {
      "constant": true,
      "inputs": [
        {
          "name": "",
          "type": "uint256"
        }
      ],
      "name": "partmember",
      "outputs": [
        {
          "name": "name",
          "type": "string"
        },
        {
          "name": "introduce",
          "type": "string"
        },
        {
          "name": "account",
          "type": "uint64"
        }
      ],
      "payable": false,
      "stateMutability": "view",
      "type": "function"
    },
    {
      "inputs": [
        {
          "name": "_title",
          "type": "string"
        },
        {
          "name": "_arrivetime",
          "type": "uint256"
        }
      ],
      "payable": false,
      "stateMutability": "nonpayable",
      "type": "constructor"
    },
    {
      "constant": false,
      "inputs": [
        {
          "name": "_name",
          "type": "string"
        },
        {
          "name": "_introduce",
          "type": "string"
        }
      ],
      "name": "createNewMan",
      "outputs": [],
      "payable": false,
      "stateMutability": "nonpayable",
      "type": "function"
    },
    {
      "constant": true,
      "inputs": [
        {
          "name": "j",
          "type": "uint256"
        }
      ],
      "name": "readPartMans",
      "outputs": [
        {
          "name": "",
          "type": "string"
        },
        {
          "name": "",
          "type": "string"
        },
        {
          "name": "",
          "type": "uint64"
        },
        {
          "name": "",
          "type": "address[]"
        }
      ],
      "payable": false,
      "stateMutability": "view",
      "type": "function"
    },
    {
      "constant": false,
      "inputs": [
        {
          "name": "i",
          "type": "uint256"
        },
        {
          "name": "addr1",
          "type": "address"
        }
      ],
      "name": "ToBallet",
      "outputs": [],
      "payable": false,
      "stateMutability": "nonpayable",
      "type": "function"
    },
    {
      "constant": true,
      "inputs": [],
      "name": "Havevoted",
      "outputs": [
        {
          "name": "",
          "type": "address[]"
        }
      ],
      "payable": false,
      "stateMutability": "view",
      "type": "function"
    },
    {
      "constant": true,
      "inputs": [],
      "name": "GetVoterNum",
      "outputs": [
        {
          "name": "",
          "type": "uint256"
        }
      ],
      "payable": false,
      "stateMutability": "view",
      "type": "function"
    },
    {
      "constant": true,
      "inputs": [],
      "name": "GetDetailTitle",
      "outputs": [
        {
          "name": "",
          "type": "string"
        },
        {
          "name": "",
          "type": "uint256"
        },
        {
          "name": "",
          "type": "uint64"
        }
      ],
      "payable": false,
      "stateMutability": "view",
      "type": "function"
    },
    {
      "constant": true,
      "inputs": [],
      "name": "GetPartLen",
      "outputs": [
        {
          "name": "",
          "type": "uint256"
        }
      ],
      "payable": false,
      "stateMutability": "view",
      "type": "function"
    }
  ],
  "bytecode": "0x60806040526001600260006101000a81548160ff0219169083151502179055503480156200002c57600080fd5b506040516200131b3803806200131b833981018060405260408110156200005257600080fd5b8101908080516401000000008111156200006b57600080fd5b828101905060208101848111156200008257600080fd5b8151856001820283011164010000000082111715620000a057600080fd5b5050929190602001805190602001909291905050508160009080519060200190620000cd92919062000112565b504260018190555080600154016001819055506000600260016101000a81548167ffffffffffffffff021916908367ffffffffffffffff1602179055505050620001c1565b828054600181600116156101000203166002900490600052602060002090601f016020900481019282601f106200015557805160ff191683800117855562000186565b8280016001018555821562000186579182015b828111156200018557825182559160200191906001019062000168565b5b50905062000195919062000199565b5090565b620001be91905b80821115620001ba576000816000905550600101620001a0565b5090565b90565b61114a80620001d16000396000f3fe608060405260043610610093576000357c010000000000000000000000000000000000000000000000000000000090048063031964191461009857806323e1a248146100c35780633fd7c734146100ee578063761d4417146101a057806391a6a7b8146103235780639b94b42e1461039e578063bc652c1d146103f9578063e801994c14610558578063f2f770ac14610693575b600080fd5b3480156100a457600080fd5b506100ad6106ff565b6040518082815260200191505060405180910390f35b3480156100cf57600080fd5b506100d861070c565b6040518082815260200191505060405180910390f35b3480156100fa57600080fd5b50610103610734565b60405180806020018481526020018367ffffffffffffffff1667ffffffffffffffff168152602001828103825285818151815260200191508051906020019080838360005b83811015610163578082015181840152602081019050610148565b50505050905090810190601f1680156101905780820380516001836020036101000a031916815260200191505b5094505050505060405180910390f35b3480156101ac57600080fd5b506101d9600480360360208110156101c357600080fd5b81019080803590602001909291905050506107fc565b6040518080602001806020018567ffffffffffffffff1667ffffffffffffffff16815260200180602001848103845288818151815260200191508051906020019080838360005b8381101561023b578082015181840152602081019050610220565b50505050905090810190601f1680156102685780820380516001836020036101000a031916815260200191505b50848103835287818151815260200191508051906020019080838360005b838110156102a1578082015181840152602081019050610286565b50505050905090810190601f1680156102ce5780820380516001836020036101000a031916815260200191505b50848103825285818151815260200191508051906020019060200280838360005b8381101561030a5780820151818401526020810190506102ef565b5050505090500197505050505050505060405180910390f35b34801561032f57600080fd5b5061035c6004803603602081101561034657600080fd5b8101908080359060200190929190505050610a67565b604051808273ffffffffffffffffffffffffffffffffffffffff1673ffffffffffffffffffffffffffffffffffffffff16815260200191505060405180910390f35b3480156103aa57600080fd5b506103f7600480360360408110156103c157600080fd5b8101908080359060200190929190803573ffffffffffffffffffffffffffffffffffffffff169060200190929190505050610aa5565b005b34801561040557600080fd5b506105566004803603604081101561041c57600080fd5b810190808035906020019064010000000081111561043957600080fd5b82018360208201111561044b57600080fd5b8035906020019184600183028401116401000000008311171561046d57600080fd5b91908080601f016020809104026020016040519081016040528093929190818152602001838380828437600081840152601f19601f820116905080830192505050505050509192919290803590602001906401000000008111156104d057600080fd5b8201836020820111156104e257600080fd5b8035906020019184600183028401116401000000008311171561050457600080fd5b91908080601f016020809104026020016040519081016040528093929190818152602001838380828437600081840152601f19601f820116905080830192505050505050509192919290505050610c37565b005b34801561056457600080fd5b506105916004803603602081101561057b57600080fd5b8101908080359060200190929190505050610da1565b6040518080602001806020018467ffffffffffffffff1667ffffffffffffffff168152602001838103835286818151815260200191508051906020019080838360005b838110156105ef5780820151818401526020810190506105d4565b50505050905090810190601f16801561061c5780820380516001836020036101000a031916815260200191505b50838103825285818151815260200191508051906020019080838360005b8381101561065557808201518184015260208101905061063a565b50505050905090810190601f1680156106825780820380516001836020036101000a031916815260200191505b509550505050505060405180910390f35b34801561069f57600080fd5b506106a8610f1e565b6040518080602001828103825283818151815260200191508051906020019060200280838360005b838110156106eb5780820151818401526020810190506106d0565b505050509050019250505060405180910390f35b6000600480549050905090565b6000600260019054906101000a900467ffffffffffffffff1667ffffffffffffffff16905090565b60606000806000600154600260019054906101000a900467ffffffffffffffff16828054600181600116156101000203166002900480601f0160208091040260200160405190810160405280929190818152602001828054600181600116156101000203166002900480156107ea5780601f106107bf576101008083540402835291602001916107ea565b820191906000526020600020905b8154815290600101906020018083116107cd57829003601f168201915b50505050509250925092509250909192565b6060806000606060048581548110151561081257fe5b906000526020600020906004020160000160048681548110151561083257fe5b906000526020600020906004020160010160048781548110151561085257fe5b906000526020600020906004020160020160009054906101000a900467ffffffffffffffff1660048881548110151561088757fe5b9060005260206000209060040201600301838054600181600116156101000203166002900480601f01602080910402602001604051908101604052809291908181526020018280546001816001161561010002031660029004801561092d5780601f106109025761010080835404028352916020019161092d565b820191906000526020600020905b81548152906001019060200180831161091057829003601f168201915b50505050509350828054600181600116156101000203166002900480601f0160208091040260200160405190810160405280929190818152602001828054600181600116156101000203166002900480156109c95780601f1061099e576101008083540402835291602001916109c9565b820191906000526020600020905b8154815290600101906020018083116109ac57829003601f168201915b5050505050925080805480602002602001604051908101604052809291908181526020018280548015610a5157602002820191906000526020600020905b8160009054906101000a900473ffffffffffffffffffffffffffffffffffffffff1673ffffffffffffffffffffffffffffffffffffffff1681526020019060010190808311610a07575b5050505050905093509350935093509193509193565b600381815481101515610a7657fe5b906000526020600020016000915054906101000a900473ffffffffffffffffffffffffffffffffffffffff1681565b6001600483815481101515610ab657fe5b906000526020600020906004020160020160008282829054906101000a900467ffffffffffffffff160192506101000a81548167ffffffffffffffff021916908367ffffffffffffffff160217905550600482815481101515610b1557fe5b90600052602060002090600402016003018190806001815401808255809150509060018203906000526020600020016000909192909190916101000a81548173ffffffffffffffffffffffffffffffffffffffff021916908373ffffffffffffffffffffffffffffffffffffffff160217905550506001600260018282829054906101000a900467ffffffffffffffff160192506101000a81548167ffffffffffffffff021916908367ffffffffffffffff16021790555060038190806001815401808255809150509060018203906000526020600020016000909192909190916101000a81548173ffffffffffffffffffffffffffffffffffffffff021916908373ffffffffffffffffffffffffffffffffffffffff160217905550505050565b60606001604051908082528060200260200182016040528015610c695781602001602082028038833980820191505090505b5090506000816000815181101515610c7d57fe5b9060200190602002019073ffffffffffffffffffffffffffffffffffffffff16908173ffffffffffffffffffffffffffffffffffffffff16815250506004608060405190810160405280858152602001848152602001600067ffffffffffffffff16815260200183815250908060018154018082558091505090600182039060005260206000209060040201600090919290919091506000820151816000019080519060200190610d2f929190610fac565b506020820151816001019080519060200190610d4c929190610fac565b5060408201518160020160006101000a81548167ffffffffffffffff021916908367ffffffffffffffff1602179055506060820151816003019080519060200190610d9892919061102c565b50505050505050565b600481815481101515610db057fe5b9060005260206000209060040201600091509050806000018054600181600116156101000203166002900480601f016020809104026020016040519081016040528092919081815260200182805460018160011615610100020316600290048015610e5c5780601f10610e3157610100808354040283529160200191610e5c565b820191906000526020600020905b815481529060010190602001808311610e3f57829003601f168201915b505050505090806001018054600181600116156101000203166002900480601f016020809104026020016040519081016040528092919081815260200182805460018160011615610100020316600290048015610efa5780601f10610ecf57610100808354040283529160200191610efa565b820191906000526020600020905b815481529060010190602001808311610edd57829003601f168201915b5050505050908060020160009054906101000a900467ffffffffffffffff16905083565b60606003805480602002602001604051908101604052809291908181526020018280548015610fa257602002820191906000526020600020905b8160009054906101000a900473ffffffffffffffffffffffffffffffffffffffff1673ffffffffffffffffffffffffffffffffffffffff1681526020019060010190808311610f58575b5050505050905090565b828054600181600116156101000203166002900490600052602060002090601f016020900481019282601f10610fed57805160ff191683800117855561101b565b8280016001018555821561101b579182015b8281111561101a578251825591602001919060010190610fff565b5b50905061102891906110b6565b5090565b8280548282559060005260206000209081019282156110a5579160200282015b828111156110a45782518260006101000a81548173ffffffffffffffffffffffffffffffffffffffff021916908373ffffffffffffffffffffffffffffffffffffffff1602179055509160200191906001019061104c565b5b5090506110b291906110db565b5090565b6110d891905b808211156110d45760008160009055506001016110bc565b5090565b90565b61111b91905b8082111561111757600081816101000a81549073ffffffffffffffffffffffffffffffffffffffff0219169055506001016110e1565b5090565b9056fea165627a7a72305820f0d8294e0e63e68d0f04ee29134f5f72e2490ab5c3242c55a528fb99ff95f71c0029",
  "source": "\r\npragma solidity >=0.4.22 <0.6.2;\r\n//投票的标题管理\r\ncontract ManageTitleList\r\n{\r\n    address myaddr;\r\n    constructor() public {\r\n       myaddr=msg.sender;\r\n    }\r\n\r\n    uint [] public TitleList;\r\n    address [] public TitleAddrs;\r\n    mapping(uint=>address) public creatorTitleMap;//存放所有标题的地址\r\n     function createTitle(string memory _title,uint _arrivetime) public returns(bool)\r\n    {\r\n        address newTitle=address(new TitleOwner(_title,_arrivetime));\r\n        uint nowID=TitleList.length>0?TitleList[TitleList.length-1]+1:1;//索引永远比值小1\r\n        creatorTitleMap[nowID]=newTitle;//存放标题地址\r\n        TitleList.push(nowID);\r\n        TitleAddrs.push(newTitle);//在这里不需要映射直接保存地址\r\n        return true;\r\n    }\r\n    //获取管理员地址\r\n     function getManager() public view returns(address)\r\n        {\r\n            return myaddr;\r\n        }\r\n\r\n    //创建候选人\r\n    function createPartMan(uint i,string memory _name,string memory _introduce)public\r\n    {\r\n        address  targetaddr=creatorTitleMap[i];//正常序号\r\n        TitleOwner  titleowner=TitleOwner(targetaddr);\r\n        titleowner.createNewMan(_name,_introduce);\r\n    }\r\n\r\n\r\n    //返回所有的标题地址\r\n    function  getTitleList()public view returns(address[] memory)\r\n    {\r\n    return TitleAddrs;\r\n    }\r\n\r\n    function GetAllVoteman(address targetaddr)public view returns(uint)//返回投票人数\r\n    {\r\n          TitleOwner titleowner=TitleOwner(targetaddr);\r\n         return titleowner.GetVoterNum();\r\n    }\r\n    //返回所有标题\r\n    function GetTitle(address _targetaddr)public view returns(string memory,uint,uint64 )\r\n    {\r\n        TitleOwner titleowner=TitleOwner(_targetaddr);\r\n        return titleowner.GetDetailTitle();\r\n    }\r\n}\r\n\r\n\r\ncontract TitleOwner\r\n{\r\n    string title;\r\n    uint time;\r\n    bool isalive=true;\r\n    uint64 allman;//所有参与投票的人\r\n    address [] public  GiveVote;//已经投过票的\r\n    struct PartMember  //候选人结构体数组\r\n    {\r\n        string name;\r\n        string introduce;//个人简介\r\n        uint64 account;\r\n        address []  voteaddr;//存放投票的地址\r\n    }\r\n    PartMember [] public partmember;//参选人员列表\r\n    constructor(string memory _title,uint _arrivetime) public\r\n    {\r\n        title=_title;\r\n        time=now;\r\n        time=time+_arrivetime;\r\n        allman=0;\r\n    }\r\n    //创建候选人\r\n    function createNewMan(string memory _name,string memory _introduce) public\r\n    {\r\n        address[] memory voteaddr=new address[](1);\r\n        voteaddr[0]=address(0x0);\r\n        partmember.push(PartMember(_name,_introduce,0,voteaddr));\r\n    }\r\n    //返回所有的参选人\r\n    function readPartMans(uint j)view public returns(string memory,string memory,uint64,address[] memory)\r\n    {\r\n        return (partmember[j].name,partmember[j].introduce,partmember[j].account,partmember[j].voteaddr);\r\n    }\r\n    //给某人增加票数\r\n    function ToBallet(uint i,address addr1)public{\r\n        partmember[i].account+=1;\r\n        partmember[i].voteaddr.push(addr1);\r\n        allman+=1;\r\n        GiveVote.push(addr1);\r\n    }\r\n\r\n    function  Havevoted()public view returns(address[] memory)//判断是否投过票\r\n    {\r\n      return GiveVote;\r\n    }\r\n    function GetVoterNum() public view returns(uint)//返回已投人数\r\n    {\r\n        return  allman;\r\n    }\r\n    function GetDetailTitle()public view returns(string memory,uint,uint64)//返回标题\r\n    {\r\n        return (title,time,allman);\r\n    }\r\n   //返回候选人长度\r\n   function GetPartLen()public view returns(uint)\r\n   {\r\n       return partmember.length;\r\n   }\r\n}\r\n\r\n",
  "sourcePath": "E:\\all_software\\webstorm\\code\\Ballet1\\contracts\\ManageTitleList.sol",
  "compiler": {
    "name": "solc",
    "version": "0.5.1+commit.c8a2cb62.Emscripten.clang"
  },
  "schemaVersion": "3.0.23",
  "updatedAt": "2020-05-12T05:47:10.360Z",
  "devdoc": {
    "methods": {}
  },
  "userdoc": {
    "methods": {}
  }
}